{
  "_format": "hh-sol-artifact-1",
  "contractName": "ReliefChain",
  "sourceName": "contracts/ReliefChain.sol",
  "abi": [
    {
      "inputs": [
        {
          "internalType": "address[]",
          "name": "_validators",
          "type": "address[]"
        },
        {
          "internalType": "address[]",
          "name": "_organizers",
          "type": "address[]"
        }
      ],
      "stateMutability": "nonpayable",
      "type": "constructor"
    },
    {
      "inputs": [],
      "name": "AccessControlBadConfirmation",
      "type": "error"
    },
    {
      "inputs": [
        {
          "internalType": "address",
          "name": "account",
          "type": "address"
        },
        {
          "internalType": "bytes32",
          "name": "neededRole",
          "type": "bytes32"
        }
      ],
      "name": "AccessControlUnauthorizedAccount",
      "type": "error"
    },
    {
      "inputs": [],
      "name": "ReentrancyGuardReentrantCall",
      "type": "error"
    },
    {
      "anonymous": false,
      "inputs": [
        {
          "indexed": true,
          "internalType": "address",
          "name": "owner",
          "type": "address"
        },
        {
          "indexed": false,
          "internalType": "uint256",
          "name": "amount",
          "type": "uint256"
        }
      ],
      "name": "CampaignFundsWithdrawn",
      "type": "event"
    },
    {
      "anonymous": false,
      "inputs": [
        {
          "indexed": true,
          "internalType": "address",
          "name": "donor",
          "type": "address"
        },
        {
          "indexed": false,
          "internalType": "uint256",
          "name": "amount",
          "type": "uint256"
        },
        {
          "indexed": false,
          "internalType": "uint256",
          "name": "timestamp",
          "type": "uint256"
        }
      ],
      "name": "DonationReceived",
      "type": "event"
    },
    {
      "anonymous": false,
      "inputs": [
        {
          "indexed": true,
          "internalType": "uint256",
          "name": "requestId",
          "type": "uint256"
        },
        {
          "indexed": true,
          "internalType": "address",
          "name": "organizer",
          "type": "address"
        },
        {
          "indexed": false,
          "internalType": "uint256",
          "name": "amount",
          "type": "uint256"
        }
      ],
      "name": "FundsReleased",
      "type": "event"
    },
    {
      "anonymous": false,
      "inputs": [
        {
          "indexed": true,
          "internalType": "uint256",
          "name": "requestId",
          "type": "uint256"
        },
        {
          "indexed": true,
          "internalType": "address",
          "name": "organizer",
          "type": "address"
        },
        {
          "indexed": false,
          "internalType": "uint256",
          "name": "amount",
          "type": "uint256"
        },
        {
          "indexed": false,
          "internalType": "string",
          "name": "evidenceCID",
          "type": "string"
        }
      ],
      "name": "RequestSubmitted",
      "type": "event"
    },
    {
      "anonymous": false,
      "inputs": [
        {
          "indexed": true,
          "internalType": "bytes32",
          "name": "role",
          "type": "bytes32"
        },
        {
          "indexed": true,
          "internalType": "bytes32",
          "name": "previousAdminRole",
          "type": "bytes32"
        },
        {
          "indexed": true,
          "internalType": "bytes32",
          "name": "newAdminRole",
          "type": "bytes32"
        }
      ],
      "name": "RoleAdminChanged",
      "type": "event"
    },
    {
      "anonymous": false,
      "inputs": [
        {
          "indexed": true,
          "internalType": "bytes32",
          "name": "role",
          "type": "bytes32"
        },
        {
          "indexed": true,
          "internalType": "address",
          "name": "account",
          "type": "address"
        },
        {
          "indexed": true,
          "internalType": "address",
          "name": "sender",
          "type": "address"
        }
      ],
      "name": "RoleGranted",
      "type": "event"
    },
    {
      "anonymous": false,
      "inputs": [
        {
          "indexed": true,
          "internalType": "bytes32",
          "name": "role",
          "type": "bytes32"
        },
        {
          "indexed": true,
          "internalType": "address",
          "name": "account",
          "type": "address"
        },
        {
          "indexed": true,
          "internalType": "address",
          "name": "sender",
          "type": "address"
        }
      ],
      "name": "RoleRevoked",
      "type": "event"
    },
    {
      "anonymous": false,
      "inputs": [
        {
          "indexed": true,
          "internalType": "uint256",
          "name": "requestId",
          "type": "uint256"
        },
        {
          "indexed": true,
          "internalType": "address",
          "name": "validator",
          "type": "address"
        },
        {
          "indexed": false,
          "internalType": "bool",
          "name": "approved",
          "type": "bool"
        }
      ],
      "name": "VoteCast",
      "type": "event"
    },
    {
      "inputs": [],
      "name": "DEFAULT_ADMIN_ROLE",
      "outputs": [
        {
          "internalType": "bytes32",
          "name": "",
          "type": "bytes32"
        }
      ],
      "stateMutability": "view",
      "type": "function"
    },
    {
      "inputs": [],
      "name": "ORGANIZER_ROLE",
      "outputs": [
        {
          "internalType": "bytes32",
          "name": "",
          "type": "bytes32"
        }
      ],
      "stateMutability": "view",
      "type": "function"
    },
    {
      "inputs": [],
      "name": "VALIDATOR_ROLE",
      "outputs": [
        {
          "internalType": "bytes32",
          "name": "",
          "type": "bytes32"
        }
      ],
      "stateMutability": "view",
      "type": "function"
    },
    {
      "inputs": [],
      "name": "campaignName",
      "outputs": [
        {
          "internalType": "string",
          "name": "",
          "type": "string"
        }
      ],
      "stateMutability": "view",
      "type": "function"
    },
    {
      "inputs": [],
      "name": "campaignOwner",
      "outputs": [
        {
          "internalType": "address",
          "name": "",
          "type": "address"
        }
      ],
      "stateMutability": "view",
      "type": "function"
    },
    {
      "inputs": [
        {
          "internalType": "uint256",
          "name": "_requestId",
          "type": "uint256"
        }
      ],
      "name": "claimApprovedFunds",
      "outputs": [],
      "stateMutability": "nonpayable",
      "type": "function"
    },
    {
      "inputs": [],
      "name": "donate",
      "outputs": [],
      "stateMutability": "payable",
      "type": "function"
    },
    {
      "inputs": [
        {
          "internalType": "uint256",
          "name": "_requestId",
          "type": "uint256"
        }
      ],
      "name": "getRequestDetails",
      "outputs": [
        {
          "internalType": "uint256",
          "name": "id",
          "type": "uint256"
        },
        {
          "internalType": "address",
          "name": "organizer",
          "type": "address"
        },
        {
          "internalType": "uint256",
          "name": "amount",
          "type": "uint256"
        },
        {
          "internalType": "string",
          "name": "evidenceCID",
          "type": "string"
        },
        {
          "internalType": "uint256",
          "name": "approvals",
          "type": "uint256"
        },
        {
          "internalType": "bool",
          "name": "approved",
          "type": "bool"
        },
        {
          "internalType": "bool",
          "name": "paid",
          "type": "bool"
        }
      ],
      "stateMutability": "view",
      "type": "function"
    },
    {
      "inputs": [
        {
          "internalType": "bytes32",
          "name": "role",
          "type": "bytes32"
        }
      ],
      "name": "getRoleAdmin",
      "outputs": [
        {
          "internalType": "bytes32",
          "name": "",
          "type": "bytes32"
        }
      ],
      "stateMutability": "view",
      "type": "function"
    },
    {
      "inputs": [
        {
          "internalType": "bytes32",
          "name": "role",
          "type": "bytes32"
        },
        {
          "internalType": "address",
          "name": "account",
          "type": "address"
        }
      ],
      "name": "grantRole",
      "outputs": [],
      "stateMutability": "nonpayable",
      "type": "function"
    },
    {
      "inputs": [
        {
          "internalType": "bytes32",
          "name": "role",
          "type": "bytes32"
        },
        {
          "internalType": "address",
          "name": "account",
          "type": "address"
        }
      ],
      "name": "hasRole",
      "outputs": [
        {
          "internalType": "bool",
          "name": "",
          "type": "bool"
        }
      ],
      "stateMutability": "view",
      "type": "function"
    },
    {
      "inputs": [
        {
          "internalType": "uint256",
          "name": "_requestId",
          "type": "uint256"
        },
        {
          "internalType": "address",
          "name": "_validator",
          "type": "address"
        }
      ],
      "name": "hasValidatorVoted",
      "outputs": [
        {
          "internalType": "bool",
          "name": "",
          "type": "bool"
        }
      ],
      "stateMutability": "view",
      "type": "function"
    },
    {
      "inputs": [],
      "name": "nextRequestId",
      "outputs": [
        {
          "internalType": "uint256",
          "name": "",
          "type": "uint256"
        }
      ],
      "stateMutability": "view",
      "type": "function"
    },
    {
      "inputs": [
        {
          "internalType": "bytes32",
          "name": "role",
          "type": "bytes32"
        },
        {
          "internalType": "address",
          "name": "callerConfirmation",
          "type": "address"
        }
      ],
      "name": "renounceRole",
      "outputs": [],
      "stateMutability": "nonpayable",
      "type": "function"
    },
    {
      "inputs": [
        {
          "internalType": "uint256",
          "name": "",
          "type": "uint256"
        }
      ],
      "name": "requests",
      "outputs": [
        {
          "internalType": "uint256",
          "name": "id",
          "type": "uint256"
        },
        {
          "internalType": "address payable",
          "name": "organizer",
          "type": "address"
        },
        {
          "internalType": "uint256",
          "name": "amount",
          "type": "uint256"
        },
        {
          "internalType": "string",
          "name": "evidenceCID",
          "type": "string"
        },
        {
          "internalType": "uint256",
          "name": "approvals",
          "type": "uint256"
        },
        {
          "internalType": "bool",
          "name": "approved",
          "type": "bool"
        },
        {
          "internalType": "bool",
          "name": "paid",
          "type": "bool"
        }
      ],
      "stateMutability": "view",
      "type": "function"
    },
    {
      "inputs": [
        {
          "internalType": "bytes32",
          "name": "role",
          "type": "bytes32"
        },
        {
          "internalType": "address",
          "name": "account",
          "type": "address"
        }
      ],
      "name": "revokeRole",
      "outputs": [],
      "stateMutability": "nonpayable",
      "type": "function"
    },
    {
      "inputs": [
        {
          "internalType": "uint256",
          "name": "_amount",
          "type": "uint256"
        },
        {
          "internalType": "string",
          "name": "_evidenceCID",
          "type": "string"
        }
      ],
      "name": "submitRequest",
      "outputs": [],
      "stateMutability": "nonpayable",
      "type": "function"
    },
    {
      "inputs": [
        {
          "internalType": "bytes4",
          "name": "interfaceId",
          "type": "bytes4"
        }
      ],
      "name": "supportsInterface",
      "outputs": [
        {
          "internalType": "bool",
          "name": "",
          "type": "bool"
        }
      ],
      "stateMutability": "view",
      "type": "function"
    },
    {
      "inputs": [],
      "name": "totalDonations",
      "outputs": [
        {
          "internalType": "uint256",
          "name": "",
          "type": "uint256"
        }
      ],
      "stateMutability": "view",
      "type": "function"
    },
    {
      "inputs": [
        {
          "internalType": "uint256",
          "name": "_requestId",
          "type": "uint256"
        },
        {
          "internalType": "bool",
          "name": "_approve",
          "type": "bool"
        }
      ],
      "name": "voteOnRequest",
      "outputs": [],
      "stateMutability": "nonpayable",
      "type": "function"
    },
    {
      "inputs": [],
      "name": "withdrawRemaining",
      "outputs": [],
      "stateMutability": "nonpayable",
      "type": "function"
    },
    {
      "stateMutability": "payable",
      "type": "receive"
    }
  ],
  "bytecode": "0x60a06040526040518060400160405280601c81526020017f566965746e616d2044697361737465722052656c696566203230323600000000815250600190816200004a919062000605565b503480156200005857600080fd5b50604051620032903803806200329083398181016040528101906200007e9190620008ab565b6001620000a062000094620001e160201b60201c565b6200020c60201b60201c565b600001819055503373ffffffffffffffffffffffffffffffffffffffff1660808173ffffffffffffffffffffffffffffffffffffffff1681525050620000f06000801b336200021660201b60201c565b5060005b825181101562000164576200014d7f21702c8af46127c7fa207f89d0b0a8441bb32959a0ac7df790e9ab1a25c9892684838151811062000139576200013862000930565b5b60200260200101516200021660201b60201c565b5080806200015b906200098e565b915050620000f4565b5060005b8151811015620001d857620001c17f4d2e7a1e3f5dd6e203f087b15756ccf0e4ccd947fe1b639a38540089a1e47f63838381518110620001ad57620001ac62000930565b5b60200260200101516200021660201b60201c565b508080620001cf906200098e565b91505062000168565b505050620009db565b60007f9b779b17422d0df92223018b32b4d1fa46e071723d6817e2486d003becc55f0060001b905090565b6000819050919050565b60006200022a83836200031960201b60201c565b6200030e57600160008085815260200190815260200160002060000160008473ffffffffffffffffffffffffffffffffffffffff1673ffffffffffffffffffffffffffffffffffffffff16815260200190815260200160002060006101000a81548160ff021916908315150217905550620002aa6200038360201b60201c565b73ffffffffffffffffffffffffffffffffffffffff168273ffffffffffffffffffffffffffffffffffffffff16847f2f8788117e7eff1d82e926ec794901d17c78024a50270940304540a733656f0d60405160405180910390a46001905062000313565b600090505b92915050565b600080600084815260200190815260200160002060000160008373ffffffffffffffffffffffffffffffffffffffff1673ffffffffffffffffffffffffffffffffffffffff16815260200190815260200160002060009054906101000a900460ff16905092915050565b600033905090565b600081519050919050565b7f4e487b7100000000000000000000000000000000000000000000000000000000600052604160045260246000fd5b7f4e487b7100000000000000000000000000000000000000000000000000000000600052602260045260246000fd5b600060028204905060018216806200040d57607f821691505b602082108103620004235762000422620003c5565b5b50919050565b60008190508160005260206000209050919050565b60006020601f8301049050919050565b600082821b905092915050565b6000600883026200048d7fffffffffffffffffffffffffffffffffffffffffffffffffffffffffffffffff826200044e565b6200049986836200044e565b95508019841693508086168417925050509392505050565b6000819050919050565b6000819050919050565b6000620004e6620004e0620004da84620004b1565b620004bb565b620004b1565b9050919050565b6000819050919050565b6200050283620004c5565b6200051a6200051182620004ed565b8484546200045b565b825550505050565b600090565b6200053162000522565b6200053e818484620004f7565b505050565b5b8181101562000566576200055a60008262000527565b60018101905062000544565b5050565b601f821115620005b5576200057f8162000429565b6200058a846200043e565b810160208510156200059a578190505b620005b2620005a9856200043e565b83018262000543565b50505b505050565b600082821c905092915050565b6000620005da60001984600802620005ba565b1980831691505092915050565b6000620005f58383620005c7565b9150826002028217905092915050565b62000610826200038b565b67ffffffffffffffff8111156200062c576200062b62000396565b5b620006388254620003f4565b620006458282856200056a565b600060209050601f8311600181146200067d576000841562000668578287015190505b620006748582620005e7565b865550620006e4565b601f1984166200068d8662000429565b60005b82811015620006b75784890151825560018201915060208501945060208101905062000690565b86831015620006d75784890151620006d3601f891682620005c7565b8355505b6001600288020188555050505b505050505050565b6000604051905090565b600080fd5b600080fd5b600080fd5b6000601f19601f8301169050919050565b620007218262000705565b810181811067ffffffffffffffff8211171562000743576200074262000396565b5b80604052505050565b600062000758620006ec565b905062000766828262000716565b919050565b600067ffffffffffffffff82111562000789576200078862000396565b5b602082029050602081019050919050565b600080fd5b600073ffffffffffffffffffffffffffffffffffffffff82169050919050565b6000620007cc826200079f565b9050919050565b620007de81620007bf565b8114620007ea57600080fd5b50565b600081519050620007fe81620007d3565b92915050565b60006200081b62000815846200076b565b6200074c565b905080838252602082019050602084028301858111156200084157620008406200079a565b5b835b818110156200086e5780620008598882620007ed565b84526020840193505060208101905062000843565b5050509392505050565b600082601f83011262000890576200088f62000700565b5b8151620008a284826020860162000804565b91505092915050565b60008060408385031215620008c557620008c4620006f6565b5b600083015167ffffffffffffffff811115620008e657620008e5620006fb565b5b620008f48582860162000878565b925050602083015167ffffffffffffffff811115620009185762000917620006fb565b5b620009268582860162000878565b9150509250929050565b7f4e487b7100000000000000000000000000000000000000000000000000000000600052603260045260246000fd5b7f4e487b7100000000000000000000000000000000000000000000000000000000600052601160045260246000fd5b60006200099b82620004b1565b91507fffffffffffffffffffffffffffffffffffffffffffffffffffffffffffffffff8203620009d057620009cf6200095f565b5b600182019050919050565b60805161288b62000a0560003960008181611141015281816112b4015261131b015261288b6000f3fe60806040526004361061012e5760003560e01c806381d12c58116100ab578063c49baebe1161006f578063c49baebe1461047e578063d547741f146104a9578063de2ed893146104d2578063ed88c68e146104fd578063ee38db9514610507578063f34d4c631461051e5761019e565b806381d12c581461037f57806385997ddb146103c257806391d14854146103eb578063a217fddf14610428578063b17fac22146104535761019e565b806336568abe116100f257806336568abe1461029a5780636a84a985146102c35780637909cb59146102ee5780637e560ce71461031957806380a63ffc146103565761019e565b806301ffc9a7146101a35780630724fda9146101e057806316366b261461020b578063248a9ca3146102345780632f2ff15d146102715761019e565b3661019e5734600460008282546101459190611874565b925050819055503373ffffffffffffffffffffffffffffffffffffffff167f4b0304ab2f313234b1cea012339c8f8c3bf2c8bb357d81a579cfdb35d2e3d03034426040516101949291906118b7565b60405180910390a2005b600080fd5b3480156101af57600080fd5b506101ca60048036038101906101c59190611942565b610561565b6040516101d7919061198a565b60405180910390f35b3480156101ec57600080fd5b506101f56105db565b6040516102029190611a35565b60405180910390f35b34801561021757600080fd5b50610232600480360381019061022d9190611ae8565b610669565b005b34801561024057600080fd5b5061025b60048036038101906102569190611b7e565b610891565b6040516102689190611bba565b60405180910390f35b34801561027d57600080fd5b5061029860048036038101906102939190611c33565b6108b0565b005b3480156102a657600080fd5b506102c160048036038101906102bc9190611c33565b6108d2565b005b3480156102cf57600080fd5b506102d861094d565b6040516102e59190611c73565b60405180910390f35b3480156102fa57600080fd5b50610303610953565b6040516103109190611bba565b60405180910390f35b34801561032557600080fd5b50610340600480360381019061033b9190611c8e565b610977565b60405161034d919061198a565b60405180910390f35b34801561036257600080fd5b5061037d60048036038101906103789190611cfa565b6109e2565b005b34801561038b57600080fd5b506103a660048036038101906103a19190611d3a565b610d01565b6040516103b99796959493929190611d88565b60405180910390f35b3480156103ce57600080fd5b506103e960048036038101906103e49190611d3a565b610e05565b005b3480156103f757600080fd5b50610412600480360381019061040d9190611c33565b6110ce565b60405161041f919061198a565b60405180910390f35b34801561043457600080fd5b5061043d611138565b60405161044a9190611bba565b60405180910390f35b34801561045f57600080fd5b5061046861113f565b6040516104759190611e0d565b60405180910390f35b34801561048a57600080fd5b50610493611163565b6040516104a09190611bba565b60405180910390f35b3480156104b557600080fd5b506104d060048036038101906104cb9190611c33565b611187565b005b3480156104de57600080fd5b506104e76111a9565b6040516104f49190611c73565b60405180910390f35b6105056111af565b005b34801561051357600080fd5b5061051c61125d565b005b34801561052a57600080fd5b5061054560048036038101906105409190611d3a565b61138b565b6040516105589796959493929190611e28565b60405180910390f35b60007f7965db0b000000000000000000000000000000000000000000000000000000007bffffffffffffffffffffffffffffffffffffffffffffffffffffffff1916827bffffffffffffffffffffffffffffffffffffffffffffffffffffffff191614806105d457506105d3826114af565b5b9050919050565b600180546105e890611ecd565b80601f016020809104026020016040519081016040528092919081815260200182805461061490611ecd565b80156106615780601f1061063657610100808354040283529160200191610661565b820191906000526020600020905b81548152906001019060200180831161064457829003601f168201915b505050505081565b6106937f4d2e7a1e3f5dd6e203f087b15756ccf0e4ccd947fe1b639a38540089a1e47f63336110ce565b6106d2576040517f08c379a00000000000000000000000000000000000000000000000000000000081526004016106c990611f4a565b60405180910390fd5b60008311610715576040517f08c379a000000000000000000000000000000000000000000000000000000000815260040161070c90611fb6565b60405180910390fd5b82471015610758576040517f08c379a000000000000000000000000000000000000000000000000000000000815260040161074f90612022565b60405180910390fd5b60006002600081548092919061076d90612042565b9190505590506000600360008381526020019081526020016000209050818160000181905550338160010160006101000a81548173ffffffffffffffffffffffffffffffffffffffff021916908373ffffffffffffffffffffffffffffffffffffffff16021790555084816002018190555083838260030191826107f2929190612270565b506000816004018190555060008160050160006101000a81548160ff02191690831515021790555060008160050160016101000a81548160ff0219169083151502179055503373ffffffffffffffffffffffffffffffffffffffff16827ff4e4f05f515a0b87f7907dc0e82263e49bb5526ddfc056876f2a8908fc98d3eb8787876040516108829392919061237c565b60405180910390a35050505050565b6000806000838152602001908152602001600020600101549050919050565b6108b982610891565b6108c281611519565b6108cc838361152d565b50505050565b6108da61161e565b73ffffffffffffffffffffffffffffffffffffffff168173ffffffffffffffffffffffffffffffffffffffff161461093e576040517f6697b23200000000000000000000000000000000000000000000000000000000815260040160405180910390fd5b6109488282611626565b505050565b60025481565b7f4d2e7a1e3f5dd6e203f087b15756ccf0e4ccd947fe1b639a38540089a1e47f6381565b60006003600084815260200190815260200160002060060160008373ffffffffffffffffffffffffffffffffffffffff1673ffffffffffffffffffffffffffffffffffffffff16815260200190815260200160002060009054906101000a900460ff16905092915050565b610a0c7f21702c8af46127c7fa207f89d0b0a8441bb32959a0ac7df790e9ab1a25c98926336110ce565b610a4b576040517f08c379a0000000000000000000000000000000000000000000000000000000008152600401610a42906123fa565b60405180910390fd5b60006003600084815260200190815260200160002090508060050160019054906101000a900460ff1615610ab4576040517f08c379a0000000000000000000000000000000000000000000000000000000008152600401610aab90612466565b60405180910390fd5b8060050160009054906101000a900460ff1615610b06576040517f08c379a0000000000000000000000000000000000000000000000000000000008152600401610afd906124d2565b60405180910390fd5b8060060160003373ffffffffffffffffffffffffffffffffffffffff1673ffffffffffffffffffffffffffffffffffffffff16815260200190815260200160002060009054906101000a900460ff1615610b95576040517f08c379a0000000000000000000000000000000000000000000000000000000008152600401610b8c9061253e565b60405180910390fd5b60018160060160003373ffffffffffffffffffffffffffffffffffffffff1673ffffffffffffffffffffffffffffffffffffffff16815260200190815260200160002060006101000a81548160ff0219169083151502179055508115610c6457806004016000815480929190610c0a90612042565b91905055503373ffffffffffffffffffffffffffffffffffffffff16837fe71fcdac32df1877c1700e7bda2a03157e20993363a28fc35ac495cefc76e4d46001604051610c57919061198a565b60405180910390a3610cb5565b3373ffffffffffffffffffffffffffffffffffffffff16837fe71fcdac32df1877c1700e7bda2a03157e20993363a28fc35ac495cefc76e4d46000604051610cac919061198a565b60405180910390a35b6002816004015410158015610cd957508060050160009054906101000a900460ff16155b15610cfc5760018160050160006101000a81548160ff0219169083151502179055505b505050565b60036020528060005260406000206000915090508060000154908060010160009054906101000a900473ffffffffffffffffffffffffffffffffffffffff1690806002015490806003018054610d5690611ecd565b80601f0160208091040260200160405190810160405280929190818152602001828054610d8290611ecd565b8015610dcf5780601f10610da457610100808354040283529160200191610dcf565b820191906000526020600020905b815481529060010190602001808311610db257829003601f168201915b5050505050908060040154908060050160009054906101000a900460ff16908060050160019054906101000a900460ff16905087565b610e0d611718565b60006003600083815260200190815260200160002090508060010160009054906101000a900473ffffffffffffffffffffffffffffffffffffffff1673ffffffffffffffffffffffffffffffffffffffff163373ffffffffffffffffffffffffffffffffffffffff1614610eb6576040517f08c379a0000000000000000000000000000000000000000000000000000000008152600401610ead906125aa565b60405180910390fd5b8060050160009054906101000a900460ff16610f07576040517f08c379a0000000000000000000000000000000000000000000000000000000008152600401610efe90612616565b60405180910390fd5b8060050160019054906101000a900460ff1615610f59576040517f08c379a0000000000000000000000000000000000000000000000000000000008152600401610f5090612682565b60405180910390fd5b60018160050160016101000a81548160ff02191690831515021790555060008160010160009054906101000a900473ffffffffffffffffffffffffffffffffffffffff1673ffffffffffffffffffffffffffffffffffffffff168260020154604051610fc4906126d3565b60006040518083038185875af1925050503d8060008114611001576040519150601f19603f3d011682016040523d82523d6000602084013e611006565b606091505b505090508061104a576040517f08c379a000000000000000000000000000000000000000000000000000000000815260040161104190612734565b60405180910390fd5b8160010160009054906101000a900473ffffffffffffffffffffffffffffffffffffffff1673ffffffffffffffffffffffffffffffffffffffff16837f6e3c6096795c8298a218b2cfb8bde42726ff7c9a3d27b4d3ba41ab7f74feb5fb84600201546040516110b99190611c73565b60405180910390a350506110cb61173b565b50565b600080600084815260200190815260200160002060000160008373ffffffffffffffffffffffffffffffffffffffff1673ffffffffffffffffffffffffffffffffffffffff16815260200190815260200160002060009054906101000a900460ff16905092915050565b6000801b81565b7f000000000000000000000000000000000000000000000000000000000000000081565b7f21702c8af46127c7fa207f89d0b0a8441bb32959a0ac7df790e9ab1a25c9892681565b61119082610891565b61119981611519565b6111a38383611626565b50505050565b60045481565b600034116111f2576040517f08c379a00000000000000000000000000000000000000000000000000000000081526004016111e9906127a0565b60405180910390fd5b34600460008282546112049190611874565b925050819055503373ffffffffffffffffffffffffffffffffffffffff167f4b0304ab2f313234b1cea012339c8f8c3bf2c8bb357d81a579cfdb35d2e3d03034426040516112539291906118b7565b60405180910390a2565b6000801b61126a81611519565b6000479050600081116112b2576040517f08c379a00000000000000000000000000000000000000000000000000000000081526004016112a99061280c565b60405180910390fd5b7f000000000000000000000000000000000000000000000000000000000000000073ffffffffffffffffffffffffffffffffffffffff166108fc829081150290604051600060405180830381858888f19350505050158015611318573d6000803e3d6000fd5b507f000000000000000000000000000000000000000000000000000000000000000073ffffffffffffffffffffffffffffffffffffffff167f2fd7ef8910b55602dfce9d87494b8b5b9e834d5788761446f4a7ecb54ce1b4228260405161137f9190611c73565b60405180910390a25050565b60008060006060600080600080600360008a8152602001908152602001600020905080600001548160010160009054906101000a900473ffffffffffffffffffffffffffffffffffffffff1682600201548360030184600401548560050160009054906101000a900460ff168660050160019054906101000a900460ff1683805461141590611ecd565b80601f016020809104026020016040519081016040528092919081815260200182805461144190611ecd565b801561148e5780601f106114635761010080835404028352916020019161148e565b820191906000526020600020905b81548152906001019060200180831161147157829003601f168201915b50505050509350975097509750975097509750975050919395979092949650565b60007f01ffc9a7000000000000000000000000000000000000000000000000000000007bffffffffffffffffffffffffffffffffffffffffffffffffffffffff1916827bffffffffffffffffffffffffffffffffffffffffffffffffffffffff1916149050919050565b61152a8161152561161e565b611756565b50565b600061153983836110ce565b61161357600160008085815260200190815260200160002060000160008473ffffffffffffffffffffffffffffffffffffffff1673ffffffffffffffffffffffffffffffffffffffff16815260200190815260200160002060006101000a81548160ff0219169083151502179055506115b061161e565b73ffffffffffffffffffffffffffffffffffffffff168273ffffffffffffffffffffffffffffffffffffffff16847f2f8788117e7eff1d82e926ec794901d17c78024a50270940304540a733656f0d60405160405180910390a460019050611618565b600090505b92915050565b600033905090565b600061163283836110ce565b1561170d57600080600085815260200190815260200160002060000160008473ffffffffffffffffffffffffffffffffffffffff1673ffffffffffffffffffffffffffffffffffffffff16815260200190815260200160002060006101000a81548160ff0219169083151502179055506116aa61161e565b73ffffffffffffffffffffffffffffffffffffffff168273ffffffffffffffffffffffffffffffffffffffff16847ff6391f5c32d9c69d2a47ea670b442974b53935d1edc7fd64eb21e047a839171b60405160405180910390a460019050611712565b600090505b92915050565b6117206117a7565b600261173261172d6117e8565b611813565b60000181905550565b600161174d6117486117e8565b611813565b60000181905550565b61176082826110ce565b6117a35780826040517fe2517d3f00000000000000000000000000000000000000000000000000000000815260040161179a92919061282c565b60405180910390fd5b5050565b6117af61181d565b156117e6576040517f3ee5aeb500000000000000000000000000000000000000000000000000000000815260040160405180910390fd5b565b60007f9b779b17422d0df92223018b32b4d1fa46e071723d6817e2486d003becc55f0060001b905090565b6000819050919050565b6000600261183161182c6117e8565b611813565b6000015414905090565b6000819050919050565b7f4e487b7100000000000000000000000000000000000000000000000000000000600052601160045260246000fd5b600061187f8261183b565b915061188a8361183b565b92508282019050808211156118a2576118a1611845565b5b92915050565b6118b18161183b565b82525050565b60006040820190506118cc60008301856118a8565b6118d960208301846118a8565b9392505050565b600080fd5b600080fd5b60007fffffffff0000000000000000000000000000000000000000000000000000000082169050919050565b61191f816118ea565b811461192a57600080fd5b50565b60008135905061193c81611916565b92915050565b600060208284031215611958576119576118e0565b5b60006119668482850161192d565b91505092915050565b60008115159050919050565b6119848161196f565b82525050565b600060208201905061199f600083018461197b565b92915050565b600081519050919050565b600082825260208201905092915050565b60005b838110156119df5780820151818401526020810190506119c4565b60008484015250505050565b6000601f19601f8301169050919050565b6000611a07826119a5565b611a1181856119b0565b9350611a218185602086016119c1565b611a2a816119eb565b840191505092915050565b60006020820190508181036000830152611a4f81846119fc565b905092915050565b611a608161183b565b8114611a6b57600080fd5b50565b600081359050611a7d81611a57565b92915050565b600080fd5b600080fd5b600080fd5b60008083601f840112611aa857611aa7611a83565b5b8235905067ffffffffffffffff811115611ac557611ac4611a88565b5b602083019150836001820283011115611ae157611ae0611a8d565b5b9250929050565b600080600060408486031215611b0157611b006118e0565b5b6000611b0f86828701611a6e565b935050602084013567ffffffffffffffff811115611b3057611b2f6118e5565b5b611b3c86828701611a92565b92509250509250925092565b6000819050919050565b611b5b81611b48565b8114611b6657600080fd5b50565b600081359050611b7881611b52565b92915050565b600060208284031215611b9457611b936118e0565b5b6000611ba284828501611b69565b91505092915050565b611bb481611b48565b82525050565b6000602082019050611bcf6000830184611bab565b92915050565b600073ffffffffffffffffffffffffffffffffffffffff82169050919050565b6000611c0082611bd5565b9050919050565b611c1081611bf5565b8114611c1b57600080fd5b50565b600081359050611c2d81611c07565b92915050565b60008060408385031215611c4a57611c496118e0565b5b6000611c5885828601611b69565b9250506020611c6985828601611c1e565b9150509250929050565b6000602082019050611c8860008301846118a8565b92915050565b60008060408385031215611ca557611ca46118e0565b5b6000611cb385828601611a6e565b9250506020611cc485828601611c1e565b9150509250929050565b611cd78161196f565b8114611ce257600080fd5b50565b600081359050611cf481611cce565b92915050565b60008060408385031215611d1157611d106118e0565b5b6000611d1f85828601611a6e565b9250506020611d3085828601611ce5565b9150509250929050565b600060208284031215611d5057611d4f6118e0565b5b6000611d5e84828501611a6e565b91505092915050565b6000611d7282611bd5565b9050919050565b611d8281611d67565b82525050565b600060e082019050611d9d600083018a6118a8565b611daa6020830189611d79565b611db760408301886118a8565b8181036060830152611dc981876119fc565b9050611dd860808301866118a8565b611de560a083018561197b565b611df260c083018461197b565b98975050505050505050565b611e0781611bf5565b82525050565b6000602082019050611e226000830184611dfe565b92915050565b600060e082019050611e3d600083018a6118a8565b611e4a6020830189611dfe565b611e5760408301886118a8565b8181036060830152611e6981876119fc565b9050611e7860808301866118a8565b611e8560a083018561197b565b611e9260c083018461197b565b98975050505050505050565b7f4e487b7100000000000000000000000000000000000000000000000000000000600052602260045260246000fd5b60006002820490506001821680611ee557607f821691505b602082108103611ef857611ef7611e9e565b5b50919050565b7f43616c6c6572206973206e6f7420616e206f7267616e697a6572000000000000600082015250565b6000611f34601a836119b0565b9150611f3f82611efe565b602082019050919050565b60006020820190508181036000830152611f6381611f27565b9050919050565b7f416d6f756e74206d7573742062652067726561746572207468616e2030000000600082015250565b6000611fa0601d836119b0565b9150611fab82611f6a565b602082019050919050565b60006020820190508181036000830152611fcf81611f93565b9050919050565b7f496e73756666696369656e742063616d706169676e2062616c616e6365000000600082015250565b600061200c601d836119b0565b915061201782611fd6565b602082019050919050565b6000602082019050818103600083015261203b81611fff565b9050919050565b600061204d8261183b565b91507fffffffffffffffffffffffffffffffffffffffffffffffffffffffffffffffff820361207f5761207e611845565b5b600182019050919050565b600082905092915050565b7f4e487b7100000000000000000000000000000000000000000000000000000000600052604160045260246000fd5b60008190508160005260206000209050919050565b60006020601f8301049050919050565b600082821b905092915050565b6000600883026121267fffffffffffffffffffffffffffffffffffffffffffffffffffffffffffffffff826120e9565b61213086836120e9565b95508019841693508086168417925050509392505050565b6000819050919050565b600061216d6121686121638461183b565b612148565b61183b565b9050919050565b6000819050919050565b61218783612152565b61219b61219382612174565b8484546120f6565b825550505050565b600090565b6121b06121a3565b6121bb81848461217e565b505050565b5b818110156121df576121d46000826121a8565b6001810190506121c1565b5050565b601f821115612224576121f5816120c4565b6121fe846120d9565b8101602085101561220d578190505b612221612219856120d9565b8301826121c0565b50505b505050565b600082821c905092915050565b600061224760001984600802612229565b1980831691505092915050565b60006122608383612236565b9150826002028217905092915050565b61227a838361208a565b67ffffffffffffffff81111561229357612292612095565b5b61229d8254611ecd565b6122a88282856121e3565b6000601f8311600181146122d757600084156122c5578287013590505b6122cf8582612254565b865550612337565b601f1984166122e5866120c4565b60005b8281101561230d578489013582556001820191506020850194506020810190506122e8565b8683101561232a5784890135612326601f891682612236565b8355505b6001600288020188555050505b50505050505050565b82818337600083830152505050565b600061235b83856119b0565b9350612368838584612340565b612371836119eb565b840190509392505050565b600060408201905061239160008301866118a8565b81810360208301526123a481848661234f565b9050949350505050565b7f43616c6c6572206973206e6f7420612076616c696461746f7200000000000000600082015250565b60006123e46019836119b0565b91506123ef826123ae565b602082019050919050565b60006020820190508181036000830152612413816123d7565b9050919050565b7f5265717565737420616c72656164792070616964000000000000000000000000600082015250565b60006124506014836119b0565b915061245b8261241a565b602082019050919050565b6000602082019050818103600083015261247f81612443565b9050919050565b7f5265717565737420616c726561647920617070726f7665640000000000000000600082015250565b60006124bc6018836119b0565b91506124c782612486565b602082019050919050565b600060208201905081810360008301526124eb816124af565b9050919050565b7f56616c696461746f7220616c726561647920766f746564000000000000000000600082015250565b60006125286017836119b0565b9150612533826124f2565b602082019050919050565b600060208201905081810360008301526125578161251b565b9050919050565b7f4f6e6c7920746865206f7267616e697a65722063616e20636c61696d00000000600082015250565b6000612594601c836119b0565b915061259f8261255e565b602082019050919050565b600060208201905081810360008301526125c381612587565b9050919050565b7f52657175657374206e6f7420617070726f766564207965740000000000000000600082015250565b60006126006018836119b0565b915061260b826125ca565b602082019050919050565b6000602082019050818103600083015261262f816125f3565b9050919050565b7f416c726561647920706169640000000000000000000000000000000000000000600082015250565b600061266c600c836119b0565b915061267782612636565b602082019050919050565b6000602082019050818103600083015261269b8161265f565b9050919050565b600081905092915050565b50565b60006126bd6000836126a2565b91506126c8826126ad565b600082019050919050565b60006126de826126b0565b9150819050919050565b7f4661696c656420746f2073656e642066756e6473000000000000000000000000600082015250565b600061271e6014836119b0565b9150612729826126e8565b602082019050919050565b6000602082019050818103600083015261274d81612711565b9050919050565b7f446f6e6174696f6e206d7573742062652067726561746572207468616e203000600082015250565b600061278a601f836119b0565b915061279582612754565b602082019050919050565b600060208201905081810360008301526127b98161277d565b9050919050565b7f4e6f2066756e647320746f207769746864726177000000000000000000000000600082015250565b60006127f66014836119b0565b9150612801826127c0565b602082019050919050565b60006020820190508181036000830152612825816127e9565b9050919050565b60006040820190506128416000830185611dfe565b61284e6020830184611bab565b939250505056fea2646970667358221220c099427206cb4d770ac84a8c9b5b00892dc203228bc9fe243cf0b6eda36d673664736f6c63430008140033",
  "linkReferences": {},
  "deployedLinkReferences": {}
}